{
    "_format": "hh-sol-artifact-1",
    "contractName": "Lottery",
    "sourceName": "contracts/Lottery.sol",
    "abi": [
        {
            "inputs": [],
            "stateMutability": "nonpayable",
            "type": "constructor"
        },
        {
            "anonymous": false,
            "inputs": [
                {
                    "indexed": true,
                    "internalType": "address",
                    "name": "from",
                    "type": "address"
                },
                {
                    "indexed": false,
                    "internalType": "uint256",
                    "name": "timestamp",
                    "type": "uint256"
                },
                {
                    "indexed": false,
                    "internalType": "uint256",
                    "name": "amount",
                    "type": "uint256"
                }
            ],
            "name": "NewEntry",
            "type": "event"
        },
        {
            "inputs": [
                {
                    "internalType": "uint256",
                    "name": "_amount",
                    "type": "uint256"
                }
            ],
            "name": "enter",
            "outputs": [],
            "stateMutability": "payable",
            "type": "function"
        },
        {
            "inputs": [],
            "name": "getContractBalance",
            "outputs": [
                {
                    "internalType": "uint256",
                    "name": "",
                    "type": "uint256"
                }
            ],
            "stateMutability": "view",
            "type": "function"
        },
        {
            "inputs": [],
            "name": "getPlayers",
            "outputs": [
                {
                    "internalType": "address[]",
                    "name": "",
                    "type": "address[]"
                }
            ],
            "stateMutability": "view",
            "type": "function"
        },
        {
            "inputs": [],
            "name": "getTicketsRemaining",
            "outputs": [
                {
                    "internalType": "uint256",
                    "name": "",
                    "type": "uint256"
                }
            ],
            "stateMutability": "view",
            "type": "function"
        },
        {
            "inputs": [],
            "name": "getWinner",
            "outputs": [
                {
                    "internalType": "address",
                    "name": "",
                    "type": "address"
                }
            ],
            "stateMutability": "view",
            "type": "function"
        },
        {
            "inputs": [
                {
                    "internalType": "address",
                    "name": "_addr",
                    "type": "address"
                }
            ],
            "name": "isAdmin",
            "outputs": [
                {
                    "internalType": "bool",
                    "name": "",
                    "type": "bool"
                }
            ],
            "stateMutability": "view",
            "type": "function"
        },
        {
            "inputs": [],
            "name": "manager",
            "outputs": [
                {
                    "internalType": "address",
                    "name": "",
                    "type": "address"
                }
            ],
            "stateMutability": "view",
            "type": "function"
        },
        {
            "inputs": [],
            "name": "numberOfTickets",
            "outputs": [
                {
                    "internalType": "uint256",
                    "name": "",
                    "type": "uint256"
                }
            ],
            "stateMutability": "view",
            "type": "function"
        },
        {
            "inputs": [],
            "name": "pickWinner",
            "outputs": [],
            "stateMutability": "nonpayable",
            "type": "function"
        },
        {
            "inputs": [
                {
                    "internalType": "uint256",
                    "name": "",
                    "type": "uint256"
                }
            ],
            "name": "players",
            "outputs": [
                {
                    "internalType": "address",
                    "name": "",
                    "type": "address"
                }
            ],
            "stateMutability": "view",
            "type": "function"
        },
        {
            "inputs": [],
            "name": "prizePool",
            "outputs": [
                {
                    "internalType": "uint256",
                    "name": "",
                    "type": "uint256"
                }
            ],
            "stateMutability": "view",
            "type": "function"
        },
        {
            "inputs": [],
            "name": "winner",
            "outputs": [
                {
                    "internalType": "address",
                    "name": "",
                    "type": "address"
                }
            ],
            "stateMutability": "view",
            "type": "function"
        }
    ],
    "bytecode": "0x608060405234801561001057600080fd5b50336000806101000a81548173ffffffffffffffffffffffffffffffffffffffff021916908373ffffffffffffffffffffffffffffffffffffffff1602179055506032600381905550610eb8806100686000396000f3fe6080604052600436106100a75760003560e01c80638b5b9ccc116100645780638b5b9ccc146101ac5780638e7ea5b2146101d7578063a59f3e0c14610202578063da649e6b1461021e578063dfbf53ae14610249578063f71d96cb14610274576100a7565b806324d7806c146100ac57806345745c10146100e9578063481c6a75146101145780635d495aea1461013f5780636f9fb98a14610156578063719ce73e14610181575b600080fd5b3480156100b857600080fd5b506100d360048036038101906100ce91906108ef565b6102b1565b6040516100e09190610937565b60405180910390f35b3480156100f557600080fd5b506100fe610319565b60405161010b919061096b565b60405180910390f35b34801561012057600080fd5b5061012961031f565b6040516101369190610995565b60405180910390f35b34801561014b57600080fd5b50610154610343565b005b34801561016257600080fd5b5061016b61052b565b604051610178919061096b565b60405180910390f35b34801561018d57600080fd5b50610196610533565b6040516101a3919061096b565b60405180910390f35b3480156101b857600080fd5b506101c1610539565b6040516101ce9190610a6e565b60405180910390f35b3480156101e357600080fd5b506101ec6105c7565b6040516101f99190610995565b60405180910390f35b61021c60048036038101906102179190610abc565b6105f1565b005b34801561022a57600080fd5b5061023361073c565b604051610240919061096b565b60405180910390f35b34801561025557600080fd5b5061025e610746565b60405161026b9190610995565b60405180910390f35b34801561028057600080fd5b5061029b60048036038101906102969190610abc565b61076c565b6040516102a89190610995565b60405180910390f35b60008173ffffffffffffffffffffffffffffffffffffffff1660008054906101000a900473ffffffffffffffffffffffffffffffffffffffff1673ffffffffffffffffffffffffffffffffffffffff160361030f5760019050610314565b600090505b919050565b60035481565b60008054906101000a900473ffffffffffffffffffffffffffffffffffffffff1681565b60008054906101000a900473ffffffffffffffffffffffffffffffffffffffff1673ffffffffffffffffffffffffffffffffffffffff163373ffffffffffffffffffffffffffffffffffffffff16146103d1576040517f08c379a00000000000000000000000000000000000000000000000000000000081526004016103c890610b6c565b60405180910390fd5b600060018054905011610419576040517f08c379a000000000000000000000000000000000000000000000000000000000815260040161041090610bd8565b60405180910390fd5b60006001805490506104296107ab565b6104339190610c27565b905060006001828154811061044b5761044a610c58565b5b9060005260206000200160009054906101000a900473ffffffffffffffffffffffffffffffffffffffff1690508073ffffffffffffffffffffffffffffffffffffffff166108fc479081150290604051600060405180830381858888f193505050501580156104be573d6000803e3d6000fd5b50600067ffffffffffffffff8111156104da576104d9610c87565b5b6040519080825280602002602001820160405280156105085781602001602082028036833780820191505090505b506001908051906020019061051e9291906107e5565b5060326003819055505050565b600047905090565b60025481565b606060018054806020026020016040519081016040528092919081815260200182805480156105bd57602002820191906000526020600020905b8160009054906101000a900473ffffffffffffffffffffffffffffffffffffffff1673ffffffffffffffffffffffffffffffffffffffff1681526020019060010190808311610573575b5050505050905090565b6000600460009054906101000a900473ffffffffffffffffffffffffffffffffffffffff16905090565b600066038d7ea4c6800090506000818361060b9190610ce5565b905080341015610650576040517f08c379a000000000000000000000000000000000000000000000000000000000815260040161064790610d73565b60405180910390fd5b60005b838110156106d2576001339080600181540180825580915050600190039060005260206000200160009091909190916101000a81548173ffffffffffffffffffffffffffffffffffffffff021916908373ffffffffffffffffffffffffffffffffffffffff1602179055506001816106cb9190610d93565b9050610653565b836003546106e09190610dc7565b6003819055503373ffffffffffffffffffffffffffffffffffffffff167fc636ca1005fc6454dfb44053046512fb54887d7778dd23ecf1d09cf75216a5d3428660405161072e929190610dfb565b60405180910390a250505050565b6000600354905090565b600460009054906101000a900473ffffffffffffffffffffffffffffffffffffffff1681565b6001818154811061077c57600080fd5b906000526020600020016000915054906101000a900473ffffffffffffffffffffffffffffffffffffffff1681565b600044426001805490506040516020016107c793929190610e45565b6040516020818303038152906040528051906020012060001c905090565b82805482825590600052602060002090810192821561085e579160200282015b8281111561085d5782518260006101000a81548173ffffffffffffffffffffffffffffffffffffffff021916908373ffffffffffffffffffffffffffffffffffffffff16021790555091602001919060010190610805565b5b50905061086b919061086f565b5090565b5b80821115610888576000816000905550600101610870565b5090565b600080fd5b600073ffffffffffffffffffffffffffffffffffffffff82169050919050565b60006108bc82610891565b9050919050565b6108cc816108b1565b81146108d757600080fd5b50565b6000813590506108e9816108c3565b92915050565b6000602082840312156109055761090461088c565b5b6000610913848285016108da565b91505092915050565b60008115159050919050565b6109318161091c565b82525050565b600060208201905061094c6000830184610928565b92915050565b6000819050919050565b61096581610952565b82525050565b6000602082019050610980600083018461095c565b92915050565b61098f816108b1565b82525050565b60006020820190506109aa6000830184610986565b92915050565b600081519050919050565b600082825260208201905092915050565b6000819050602082019050919050565b6109e5816108b1565b82525050565b60006109f783836109dc565b60208301905092915050565b6000602082019050919050565b6000610a1b826109b0565b610a2581856109bb565b9350610a30836109cc565b8060005b83811015610a61578151610a4888826109eb565b9750610a5383610a03565b925050600181019050610a34565b5085935050505092915050565b60006020820190508181036000830152610a888184610a10565b905092915050565b610a9981610952565b8114610aa457600080fd5b50565b600081359050610ab681610a90565b92915050565b600060208284031215610ad257610ad161088c565b5b6000610ae084828501610aa7565b91505092915050565b600082825260208201905092915050565b7f4f6e6c7920746865206d616e616765722063616e2063616c6c2074686973206660008201527f756e6374696f6e00000000000000000000000000000000000000000000000000602082015250565b6000610b56602783610ae9565b9150610b6182610afa565b604082019050919050565b60006020820190508181036000830152610b8581610b49565b9050919050565b7f4e6f20706c617965727320696e20746865206c6f747465727900000000000000600082015250565b6000610bc2601983610ae9565b9150610bcd82610b8c565b602082019050919050565b60006020820190508181036000830152610bf181610bb5565b9050919050565b7f4e487b7100000000000000000000000000000000000000000000000000000000600052601260045260246000fd5b6000610c3282610952565b9150610c3d83610952565b925082610c4d57610c4c610bf8565b5b828206905092915050565b7f4e487b7100000000000000000000000000000000000000000000000000000000600052603260045260246000fd5b7f4e487b7100000000000000000000000000000000000000000000000000000000600052604160045260246000fd5b7f4e487b7100000000000000000000000000000000000000000000000000000000600052601160045260246000fd5b6000610cf082610952565b9150610cfb83610952565b9250828202610d0981610952565b91508282048414831517610d2057610d1f610cb6565b5b5092915050565b7f416d6f756e74206e6f7420656e6f7567682e0000000000000000000000000000600082015250565b6000610d5d601283610ae9565b9150610d6882610d27565b602082019050919050565b60006020820190508181036000830152610d8c81610d50565b9050919050565b6000610d9e82610952565b9150610da983610952565b9250828201905080821115610dc157610dc0610cb6565b5b92915050565b6000610dd282610952565b9150610ddd83610952565b9250828203905081811115610df557610df4610cb6565b5b92915050565b6000604082019050610e10600083018561095c565b610e1d602083018461095c565b9392505050565b6000819050919050565b610e3f610e3a82610952565b610e24565b82525050565b6000610e518286610e2e565b602082019150610e618285610e2e565b602082019150610e718284610e2e565b60208201915081905094935050505056fea264697066735822122080c2ea7a08be471494c4e4a2cf4f3bef5491126a34a5536f839c31c386e5683f64736f6c63430008120033",
    "linkReferences": {},
    "deployedLinkReferences": {}
}