{
    "_format": "hh-sol-artifact-1",
    "contractName": "Lottery",
    "sourceName": "contracts/Lottery.sol",
    "abi": [
        {
            "inputs": [],
            "stateMutability": "nonpayable",
            "type": "constructor"
        },
        {
            "anonymous": false,
            "inputs": [
                {
                    "indexed": true,
                    "internalType": "address",
                    "name": "from",
                    "type": "address"
                },
                {
                    "indexed": false,
                    "internalType": "uint256",
                    "name": "timestamp",
                    "type": "uint256"
                },
                {
                    "indexed": false,
                    "internalType": "uint256",
                    "name": "amount",
                    "type": "uint256"
                }
            ],
            "name": "NewEntry",
            "type": "event"
        },
        {
            "inputs": [
                {
                    "internalType": "uint256",
                    "name": "_amount",
                    "type": "uint256"
                }
            ],
            "name": "enter",
            "outputs": [],
            "stateMutability": "payable",
            "type": "function"
        },
        {
            "inputs": [],
            "name": "getContractBalance",
            "outputs": [
                {
                    "internalType": "uint256",
                    "name": "",
                    "type": "uint256"
                }
            ],
            "stateMutability": "view",
            "type": "function"
        },
        {
            "inputs": [],
            "name": "getLotteryIsOver",
            "outputs": [
                {
                    "internalType": "bool",
                    "name": "",
                    "type": "bool"
                }
            ],
            "stateMutability": "view",
            "type": "function"
        },
        {
            "inputs": [],
            "name": "getPlayers",
            "outputs": [
                {
                    "internalType": "address[]",
                    "name": "",
                    "type": "address[]"
                }
            ],
            "stateMutability": "view",
            "type": "function"
        },
        {
            "inputs": [],
            "name": "getTicketsRemaining",
            "outputs": [
                {
                    "internalType": "uint256",
                    "name": "",
                    "type": "uint256"
                }
            ],
            "stateMutability": "view",
            "type": "function"
        },
        {
            "inputs": [
                {
                    "internalType": "address",
                    "name": "_addr",
                    "type": "address"
                }
            ],
            "name": "isAdmin",
            "outputs": [
                {
                    "internalType": "bool",
                    "name": "",
                    "type": "bool"
                }
            ],
            "stateMutability": "view",
            "type": "function"
        },
        {
            "inputs": [
                {
                    "internalType": "address",
                    "name": "_addr",
                    "type": "address"
                }
            ],
            "name": "isWinner",
            "outputs": [
                {
                    "internalType": "bool",
                    "name": "",
                    "type": "bool"
                }
            ],
            "stateMutability": "view",
            "type": "function"
        },
        {
            "inputs": [],
            "name": "lotteryIsOver",
            "outputs": [
                {
                    "internalType": "bool",
                    "name": "",
                    "type": "bool"
                }
            ],
            "stateMutability": "view",
            "type": "function"
        },
        {
            "inputs": [],
            "name": "manager",
            "outputs": [
                {
                    "internalType": "address",
                    "name": "",
                    "type": "address"
                }
            ],
            "stateMutability": "view",
            "type": "function"
        },
        {
            "inputs": [],
            "name": "numberOfTickets",
            "outputs": [
                {
                    "internalType": "uint256",
                    "name": "",
                    "type": "uint256"
                }
            ],
            "stateMutability": "view",
            "type": "function"
        },
        {
            "inputs": [],
            "name": "pickWinner",
            "outputs": [],
            "stateMutability": "nonpayable",
            "type": "function"
        },
        {
            "inputs": [
                {
                    "internalType": "uint256",
                    "name": "",
                    "type": "uint256"
                }
            ],
            "name": "players",
            "outputs": [
                {
                    "internalType": "address",
                    "name": "",
                    "type": "address"
                }
            ],
            "stateMutability": "view",
            "type": "function"
        },
        {
            "inputs": [],
            "name": "prizePool",
            "outputs": [
                {
                    "internalType": "uint256",
                    "name": "",
                    "type": "uint256"
                }
            ],
            "stateMutability": "view",
            "type": "function"
        },
        {
            "inputs": [],
            "name": "restartLottery",
            "outputs": [],
            "stateMutability": "nonpayable",
            "type": "function"
        },
        {
            "inputs": [],
            "name": "winner",
            "outputs": [
                {
                    "internalType": "address",
                    "name": "",
                    "type": "address"
                }
            ],
            "stateMutability": "view",
            "type": "function"
        }
    ],
    "bytecode": "0x608060405234801561001057600080fd5b50336000806101000a81548173ffffffffffffffffffffffffffffffffffffffff021916908373ffffffffffffffffffffffffffffffffffffffff16021790555060326003819055506000600460146101000a81548160ff0219169083151502179055506110e9806100836000396000f3fe6080604052600436106100e85760003560e01c80638b5b9ccc1161008a578063da649e6b11610059578063da649e6b146102b3578063dfbf53ae146102de578063f71d96cb14610309578063fc68466214610346576100e8565b80638b5b9ccc146102045780639d9ca28d1461022f578063a59f3e0c1461026c578063b4181d7e14610288576100e8565b8063481c6a75116100c6578063481c6a751461016c5780635d495aea146101975780636f9fb98a146101ae578063719ce73e146101d9576100e8565b80630fcaed94146100ed57806324d7806c1461010457806345745c1014610141575b600080fd5b3480156100f957600080fd5b50610102610371565b005b34801561011057600080fd5b5061012b60048036038101906101269190610b20565b61041c565b6040516101389190610b68565b60405180910390f35b34801561014d57600080fd5b50610156610484565b6040516101639190610b9c565b60405180910390f35b34801561017857600080fd5b5061018161048a565b60405161018e9190610bc6565b60405180910390f35b3480156101a357600080fd5b506101ac6104ae565b005b3480156101ba57600080fd5b506101c36106f2565b6040516101d09190610b9c565b60405180910390f35b3480156101e557600080fd5b506101ee6106fa565b6040516101fb9190610b9c565b60405180910390f35b34801561021057600080fd5b50610219610700565b6040516102269190610c9f565b60405180910390f35b34801561023b57600080fd5b5061025660048036038101906102519190610b20565b61078e565b6040516102639190610b68565b60405180910390f35b61028660048036038101906102819190610ced565b6107f8565b005b34801561029457600080fd5b5061029d610943565b6040516102aa9190610b68565b60405180910390f35b3480156102bf57600080fd5b506102c861095a565b6040516102d59190610b9c565b60405180910390f35b3480156102ea57600080fd5b506102f3610964565b6040516103009190610bc6565b60405180910390f35b34801561031557600080fd5b50610330600480360381019061032b9190610ced565b61098a565b60405161033d9190610bc6565b60405180910390f35b34801561035257600080fd5b5061035b6109c9565b6040516103689190610b68565b60405180910390f35b60008054906101000a900473ffffffffffffffffffffffffffffffffffffffff1673ffffffffffffffffffffffffffffffffffffffff163373ffffffffffffffffffffffffffffffffffffffff16146103ff576040517f08c379a00000000000000000000000000000000000000000000000000000000081526004016103f690610d9d565b60405180910390fd5b6000600460146101000a81548160ff021916908315150217905550565b60008173ffffffffffffffffffffffffffffffffffffffff1660008054906101000a900473ffffffffffffffffffffffffffffffffffffffff1673ffffffffffffffffffffffffffffffffffffffff160361047a576001905061047f565b600090505b919050565b60035481565b60008054906101000a900473ffffffffffffffffffffffffffffffffffffffff1681565b60008054906101000a900473ffffffffffffffffffffffffffffffffffffffff1673ffffffffffffffffffffffffffffffffffffffff163373ffffffffffffffffffffffffffffffffffffffff161461053c576040517f08c379a000000000000000000000000000000000000000000000000000000000815260040161053390610d9d565b60405180910390fd5b600060018054905011610584576040517f08c379a000000000000000000000000000000000000000000000000000000000815260040161057b90610e09565b60405180910390fd5b60006001805490506105946109dc565b61059e9190610e58565b90506000600182815481106105b6576105b5610e89565b5b9060005260206000200160009054906101000a900473ffffffffffffffffffffffffffffffffffffffff16905080600460006101000a81548173ffffffffffffffffffffffffffffffffffffffff021916908373ffffffffffffffffffffffffffffffffffffffff1602179055508073ffffffffffffffffffffffffffffffffffffffff166108fc479081150290604051600060405180830381858888f1935050505015801561066a573d6000803e3d6000fd5b50600067ffffffffffffffff81111561068657610685610eb8565b5b6040519080825280602002602001820160405280156106b45781602001602082028036833780820191505090505b50600190805190602001906106ca929190610a16565b5060326003819055506001600460146101000a81548160ff0219169083151502179055505050565b600047905090565b60025481565b6060600180548060200260200160405190810160405280929190818152602001828054801561078457602002820191906000526020600020905b8160009054906101000a900473ffffffffffffffffffffffffffffffffffffffff1673ffffffffffffffffffffffffffffffffffffffff168152602001906001019080831161073a575b5050505050905090565b60008173ffffffffffffffffffffffffffffffffffffffff16600460009054906101000a900473ffffffffffffffffffffffffffffffffffffffff1673ffffffffffffffffffffffffffffffffffffffff16036107ee57600190506107f3565b600090505b919050565b600066038d7ea4c680009050600081836108129190610f16565b905080341015610857576040517f08c379a000000000000000000000000000000000000000000000000000000000815260040161084e90610fa4565b60405180910390fd5b60005b838110156108d9576001339080600181540180825580915050600190039060005260206000200160009091909190916101000a81548173ffffffffffffffffffffffffffffffffffffffff021916908373ffffffffffffffffffffffffffffffffffffffff1602179055506001816108d29190610fc4565b905061085a565b836003546108e79190610ff8565b6003819055503373ffffffffffffffffffffffffffffffffffffffff167fc636ca1005fc6454dfb44053046512fb54887d7778dd23ecf1d09cf75216a5d3428660405161093592919061102c565b60405180910390a250505050565b6000600460149054906101000a900460ff16905090565b6000600354905090565b600460009054906101000a900473ffffffffffffffffffffffffffffffffffffffff1681565b6001818154811061099a57600080fd5b906000526020600020016000915054906101000a900473ffffffffffffffffffffffffffffffffffffffff1681565b600460149054906101000a900460ff1681565b600044426001805490506040516020016109f893929190611076565b6040516020818303038152906040528051906020012060001c905090565b828054828255906000526020600020908101928215610a8f579160200282015b82811115610a8e5782518260006101000a81548173ffffffffffffffffffffffffffffffffffffffff021916908373ffffffffffffffffffffffffffffffffffffffff16021790555091602001919060010190610a36565b5b509050610a9c9190610aa0565b5090565b5b80821115610ab9576000816000905550600101610aa1565b5090565b600080fd5b600073ffffffffffffffffffffffffffffffffffffffff82169050919050565b6000610aed82610ac2565b9050919050565b610afd81610ae2565b8114610b0857600080fd5b50565b600081359050610b1a81610af4565b92915050565b600060208284031215610b3657610b35610abd565b5b6000610b4484828501610b0b565b91505092915050565b60008115159050919050565b610b6281610b4d565b82525050565b6000602082019050610b7d6000830184610b59565b92915050565b6000819050919050565b610b9681610b83565b82525050565b6000602082019050610bb16000830184610b8d565b92915050565b610bc081610ae2565b82525050565b6000602082019050610bdb6000830184610bb7565b92915050565b600081519050919050565b600082825260208201905092915050565b6000819050602082019050919050565b610c1681610ae2565b82525050565b6000610c288383610c0d565b60208301905092915050565b6000602082019050919050565b6000610c4c82610be1565b610c568185610bec565b9350610c6183610bfd565b8060005b83811015610c92578151610c798882610c1c565b9750610c8483610c34565b925050600181019050610c65565b5085935050505092915050565b60006020820190508181036000830152610cb98184610c41565b905092915050565b610cca81610b83565b8114610cd557600080fd5b50565b600081359050610ce781610cc1565b92915050565b600060208284031215610d0357610d02610abd565b5b6000610d1184828501610cd8565b91505092915050565b600082825260208201905092915050565b7f4f6e6c7920746865206d616e616765722063616e2063616c6c2074686973206660008201527f756e6374696f6e00000000000000000000000000000000000000000000000000602082015250565b6000610d87602783610d1a565b9150610d9282610d2b565b604082019050919050565b60006020820190508181036000830152610db681610d7a565b9050919050565b7f4e6f20706c617965727320696e20746865206c6f747465727900000000000000600082015250565b6000610df3601983610d1a565b9150610dfe82610dbd565b602082019050919050565b60006020820190508181036000830152610e2281610de6565b9050919050565b7f4e487b7100000000000000000000000000000000000000000000000000000000600052601260045260246000fd5b6000610e6382610b83565b9150610e6e83610b83565b925082610e7e57610e7d610e29565b5b828206905092915050565b7f4e487b7100000000000000000000000000000000000000000000000000000000600052603260045260246000fd5b7f4e487b7100000000000000000000000000000000000000000000000000000000600052604160045260246000fd5b7f4e487b7100000000000000000000000000000000000000000000000000000000600052601160045260246000fd5b6000610f2182610b83565b9150610f2c83610b83565b9250828202610f3a81610b83565b91508282048414831517610f5157610f50610ee7565b5b5092915050565b7f416d6f756e74206e6f7420656e6f7567682e0000000000000000000000000000600082015250565b6000610f8e601283610d1a565b9150610f9982610f58565b602082019050919050565b60006020820190508181036000830152610fbd81610f81565b9050919050565b6000610fcf82610b83565b9150610fda83610b83565b9250828201905080821115610ff257610ff1610ee7565b5b92915050565b600061100382610b83565b915061100e83610b83565b925082820390508181111561102657611025610ee7565b5b92915050565b60006040820190506110416000830185610b8d565b61104e6020830184610b8d565b9392505050565b6000819050919050565b61107061106b82610b83565b611055565b82525050565b6000611082828661105f565b602082019150611092828561105f565b6020820191506110a2828461105f565b60208201915081905094935050505056fea264697066735822122065acfaa3a1ad1ee79d43352a669fef37729f4d9c68a9501ee4c7b7c3f3012c6c64736f6c63430008120033",
    "linkReferences": {},
    "deployedLinkReferences": {}
}