{
    "_format": "hh-sol-artifact-1",
    "contractName": "Lottery",
    "sourceName": "contracts/Lottery.sol",
    "abi": [
        {
            "inputs": [],
            "stateMutability": "nonpayable",
            "type": "constructor"
        },
        {
            "anonymous": false,
            "inputs": [
                {
                    "indexed": true,
                    "internalType": "address",
                    "name": "from",
                    "type": "address"
                },
                {
                    "indexed": false,
                    "internalType": "uint256",
                    "name": "timestamp",
                    "type": "uint256"
                },
                {
                    "indexed": false,
                    "internalType": "uint256",
                    "name": "amount",
                    "type": "uint256"
                }
            ],
            "name": "NewEntry",
            "type": "event"
        },
        {
            "inputs": [
                {
                    "internalType": "uint256",
                    "name": "_amount",
                    "type": "uint256"
                }
            ],
            "name": "enter",
            "outputs": [],
            "stateMutability": "payable",
            "type": "function"
        },
        {
            "inputs": [],
            "name": "getContractBalance",
            "outputs": [
                {
                    "internalType": "uint256",
                    "name": "",
                    "type": "uint256"
                }
            ],
            "stateMutability": "view",
            "type": "function"
        },
        {
            "inputs": [],
            "name": "getPlayers",
            "outputs": [
                {
                    "internalType": "address[]",
                    "name": "",
                    "type": "address[]"
                }
            ],
            "stateMutability": "view",
            "type": "function"
        },
        {
            "inputs": [],
            "name": "getTicketsRemaining",
            "outputs": [
                {
                    "internalType": "uint256",
                    "name": "",
                    "type": "uint256"
                }
            ],
            "stateMutability": "view",
            "type": "function"
        },
        {
            "inputs": [],
            "name": "manager",
            "outputs": [
                {
                    "internalType": "address",
                    "name": "",
                    "type": "address"
                }
            ],
            "stateMutability": "view",
            "type": "function"
        },
        {
            "inputs": [],
            "name": "numberOfTickets",
            "outputs": [
                {
                    "internalType": "uint256",
                    "name": "",
                    "type": "uint256"
                }
            ],
            "stateMutability": "view",
            "type": "function"
        },
        {
            "inputs": [],
            "name": "pickWinner",
            "outputs": [],
            "stateMutability": "nonpayable",
            "type": "function"
        },
        {
            "inputs": [
                {
                    "internalType": "uint256",
                    "name": "",
                    "type": "uint256"
                }
            ],
            "name": "players",
            "outputs": [
                {
                    "internalType": "address",
                    "name": "",
                    "type": "address"
                }
            ],
            "stateMutability": "view",
            "type": "function"
        },
        {
            "inputs": [],
            "name": "prizePool",
            "outputs": [
                {
                    "internalType": "uint256",
                    "name": "",
                    "type": "uint256"
                }
            ],
            "stateMutability": "view",
            "type": "function"
        }
    ],
    "bytecode": "0x608060405234801561001057600080fd5b50336000806101000a81548173ffffffffffffffffffffffffffffffffffffffff021916908373ffffffffffffffffffffffffffffffffffffffff1602179055506032600381905550610cb5806100686000396000f3fe6080604052600436106100865760003560e01c8063719ce73e11610059578063719ce73e146101235780638b5b9ccc1461014e578063a59f3e0c14610179578063da649e6b14610195578063f71d96cb146101c057610086565b806345745c101461008b578063481c6a75146100b65780635d495aea146100e15780636f9fb98a146100f8575b600080fd5b34801561009757600080fd5b506100a06101fd565b6040516100ad9190610731565b60405180910390f35b3480156100c257600080fd5b506100cb610203565b6040516100d8919061078d565b60405180910390f35b3480156100ed57600080fd5b506100f6610227565b005b34801561010457600080fd5b5061010d610407565b60405161011a9190610731565b60405180910390f35b34801561012f57600080fd5b5061013861040f565b6040516101459190610731565b60405180910390f35b34801561015a57600080fd5b50610163610415565b6040516101709190610866565b60405180910390f35b610193600480360381019061018e91906108b9565b6104a3565b005b3480156101a157600080fd5b506101aa6105ee565b6040516101b79190610731565b60405180910390f35b3480156101cc57600080fd5b506101e760048036038101906101e291906108b9565b6105f8565b6040516101f4919061078d565b60405180910390f35b60035481565b60008054906101000a900473ffffffffffffffffffffffffffffffffffffffff1681565b60008054906101000a900473ffffffffffffffffffffffffffffffffffffffff1673ffffffffffffffffffffffffffffffffffffffff163373ffffffffffffffffffffffffffffffffffffffff16146102b5576040517f08c379a00000000000000000000000000000000000000000000000000000000081526004016102ac90610969565b60405180910390fd5b6000600180549050116102fd576040517f08c379a00000000000000000000000000000000000000000000000000000000081526004016102f4906109d5565b60405180910390fd5b600060018054905061030d610637565b6103179190610a24565b905060006001828154811061032f5761032e610a55565b5b9060005260206000200160009054906101000a900473ffffffffffffffffffffffffffffffffffffffff1690508073ffffffffffffffffffffffffffffffffffffffff166108fc479081150290604051600060405180830381858888f193505050501580156103a2573d6000803e3d6000fd5b50600067ffffffffffffffff8111156103be576103bd610a84565b5b6040519080825280602002602001820160405280156103ec5781602001602082028036833780820191505090505b5060019080519060200190610402929190610671565b505050565b600047905090565b60025481565b6060600180548060200260200160405190810160405280929190818152602001828054801561049957602002820191906000526020600020905b8160009054906101000a900473ffffffffffffffffffffffffffffffffffffffff1673ffffffffffffffffffffffffffffffffffffffff168152602001906001019080831161044f575b5050505050905090565b600066038d7ea4c680009050600081836104bd9190610ae2565b905080341015610502576040517f08c379a00000000000000000000000000000000000000000000000000000000081526004016104f990610b70565b60405180910390fd5b60005b83811015610584576001339080600181540180825580915050600190039060005260206000200160009091909190916101000a81548173ffffffffffffffffffffffffffffffffffffffff021916908373ffffffffffffffffffffffffffffffffffffffff16021790555060018161057d9190610b90565b9050610505565b836003546105929190610bc4565b6003819055503373ffffffffffffffffffffffffffffffffffffffff167fc636ca1005fc6454dfb44053046512fb54887d7778dd23ecf1d09cf75216a5d342866040516105e0929190610bf8565b60405180910390a250505050565b6000600354905090565b6001818154811061060857600080fd5b906000526020600020016000915054906101000a900473ffffffffffffffffffffffffffffffffffffffff1681565b6000444260018054905060405160200161065393929190610c42565b6040516020818303038152906040528051906020012060001c905090565b8280548282559060005260206000209081019282156106ea579160200282015b828111156106e95782518260006101000a81548173ffffffffffffffffffffffffffffffffffffffff021916908373ffffffffffffffffffffffffffffffffffffffff16021790555091602001919060010190610691565b5b5090506106f791906106fb565b5090565b5b808211156107145760008160009055506001016106fc565b5090565b6000819050919050565b61072b81610718565b82525050565b60006020820190506107466000830184610722565b92915050565b600073ffffffffffffffffffffffffffffffffffffffff82169050919050565b60006107778261074c565b9050919050565b6107878161076c565b82525050565b60006020820190506107a2600083018461077e565b92915050565b600081519050919050565b600082825260208201905092915050565b6000819050602082019050919050565b6107dd8161076c565b82525050565b60006107ef83836107d4565b60208301905092915050565b6000602082019050919050565b6000610813826107a8565b61081d81856107b3565b9350610828836107c4565b8060005b8381101561085957815161084088826107e3565b975061084b836107fb565b92505060018101905061082c565b5085935050505092915050565b600060208201905081810360008301526108808184610808565b905092915050565b600080fd5b61089681610718565b81146108a157600080fd5b50565b6000813590506108b38161088d565b92915050565b6000602082840312156108cf576108ce610888565b5b60006108dd848285016108a4565b91505092915050565b600082825260208201905092915050565b7f4f6e6c7920746865206d616e616765722063616e2063616c6c2074686973206660008201527f756e6374696f6e00000000000000000000000000000000000000000000000000602082015250565b60006109536027836108e6565b915061095e826108f7565b604082019050919050565b6000602082019050818103600083015261098281610946565b9050919050565b7f4e6f20706c617965727320696e20746865206c6f747465727900000000000000600082015250565b60006109bf6019836108e6565b91506109ca82610989565b602082019050919050565b600060208201905081810360008301526109ee816109b2565b9050919050565b7f4e487b7100000000000000000000000000000000000000000000000000000000600052601260045260246000fd5b6000610a2f82610718565b9150610a3a83610718565b925082610a4a57610a496109f5565b5b828206905092915050565b7f4e487b7100000000000000000000000000000000000000000000000000000000600052603260045260246000fd5b7f4e487b7100000000000000000000000000000000000000000000000000000000600052604160045260246000fd5b7f4e487b7100000000000000000000000000000000000000000000000000000000600052601160045260246000fd5b6000610aed82610718565b9150610af883610718565b9250828202610b0681610718565b91508282048414831517610b1d57610b1c610ab3565b5b5092915050565b7f416d6f756e74206e6f7420656e6f7567682e0000000000000000000000000000600082015250565b6000610b5a6012836108e6565b9150610b6582610b24565b602082019050919050565b60006020820190508181036000830152610b8981610b4d565b9050919050565b6000610b9b82610718565b9150610ba683610718565b9250828201905080821115610bbe57610bbd610ab3565b5b92915050565b6000610bcf82610718565b9150610bda83610718565b9250828203905081811115610bf257610bf1610ab3565b5b92915050565b6000604082019050610c0d6000830185610722565b610c1a6020830184610722565b9392505050565b6000819050919050565b610c3c610c3782610718565b610c21565b82525050565b6000610c4e8286610c2b565b602082019150610c5e8285610c2b565b602082019150610c6e8284610c2b565b60208201915081905094935050505056fea264697066735822122035b5d780262840ac53ac8bdf0094bfbc0fb1d968617cab37f61dd4bd7ffb38f464736f6c63430008120033",
    "linkReferences": {},
    "deployedLinkReferences": {}
}